:100000000C9472000C9493000C9493000C94930045
:100010000C9493000C9478010C9453010C9493006D
:100020000C9493000C9493000C9493000C94930004
:100030000C9493000C9493000C9493000C949300F4
:100040000C9493000C9493000C9493000C949300E4
:100050000C9493000C9493000C9493000C949300D4
:100060000C9493000C9493000C9493000C949300C4
:100070000C9493000C9493000C9493000C949300B4
:100080000C9493000C9493000C9493000C949300A4
:100090000C9493000C9493000C9493000C94930094
:1000A0000C9493000C9493000C9493000C94930084
:1000B0000C9493000C9493000C9493000C94930074
:1000C0000C9493000C9493000C9493000C94A7024E
:1000D0000C9493000C9493000C9493000C94930054
:1000E0000C94930011241FBECFEFD1E2DEBFCDBF31
:1000F00000E00CBF12E0A0E0B2E0E2ECFCE000E0C7
:100100000BBF02C007900D92A230B107D9F712E0E1
:10011000A2E0B2E001C01D92A635B107E1F70E944E
:10012000CD040C945F060C9400003B9A439808950C
:1001300081B18F6081B982B1807F82B9EAE0F1E05C
:10014000808188618083EBE0F1E080818861808339
:1001500008956C98749A08956D98759A089510BAD8
:1001600011BA10920701109208010895259A2D9A4C
:100170000895269A2E9A0895279A2F9A08958FEF18
:100180008093040110920501089584B1876084B9B9
:1001900085B1876085B908950E9498000E949500F6
:1001A0000E94A9000E94AC000E94AF000E94B6000D
:1001B0000E94B9000E94BC000E94BF000E94C500BE
:1001C0000895E1EDF0E010821092D00086E0809377
:1001D000D2008FE58093D4001092D50088E9808307
:1001E0000895EAE7F0E0108210927B0080E28093AD
:1001F0007C0080E880BF86E880830895E1E2F1E03A
:1002000010828FEF8093250191E09093240110924A
:1002100029018093280110922B0180932A011092CA
:100220002D0180932C0189EA809320018BE080834B
:100230000895E1E8F0E010828CEF8093850081E082
:100240008093840093E0909389008FEF80938800DF
:1002500090938B0080938A0090938D0080938C0004
:1002600090938700809386008BEA809380001092A1
:1002700082008CE080830895F894EAE6F0E08081C3
:1002800082608083EC9A78940895F894EAE6F0E02E
:10029000808188608083ED9A7894089583E58CBD91
:1002A0001DBC1EBC08951F920F920FB60F92112411
:1002B0008F939F93AF93BF93809104029091050217
:1002C000A0910602B09107020196A11DB11D809375
:1002D000040290930502A0930602B0930702BF9117
:1002E000AF919F918F910F900FBE0F901F90189517
:1002F0001F920F920FB60F9211248F939F93AF937B
:10030000BF938091080290910902A0910A02B091D6
:100310000B020196A11DB11D809308029093090262
:10032000A0930A02B0930B02BF91AF919F918F915E
:100330000F900FBE0F901F901895F8940E94CC005C
:100340000E94E1000E94F1000E94FE000E943C0118
:100350000E9445010E9419010E944E01789408955F
:10036000883018F098E090937B00877080628093CB
:100370007C0010924E02EAE7F0E080818064808386
:10038000808184FFFDCF80917900EAE7F0E09081E1
:100390009061908310927B00089580932801609370
:1003A0002A010895EBE0F1E0808182618083089565
:1003B000439A08954398089586E082B9089589E0A4
:1003C00082B9089585E082B908958AE082B90895D6
:1003D00012B80895BC0180E090E00E94D10525EE9E
:1003E00030ED4AEA50E40E943D050E94A505462FE3
:1003F000572F682F792F1092040210920502109245
:100400000602109207028091040290910502A091C9
:100410000602B0910702481759076A077B0798F749
:100420000E94E8010895CF93DF93EC010E94DC0164
:10043000CE010E94EA01DF91CF910895CF93DF931F
:10044000EC010E94DF01CE010E94EA01DF91CF9111
:10045000089510928900682F70E080E090E00E947B
:10046000D1052BE734E14EEE5FE30E943D0520E02D
:1004700030E04CE052E40E94D9040E94A50560934C
:100480008800089510928B00682F70E080E090E063
:100490000E94D1052BE734E14EEE5FE30E943D055B
:1004A00020E030E04CE052E40E94D9040E94A5050F
:1004B00060938A00089510928D00682F70E080E0AC
:1004C00090E00E94D1052BE734E14EEE5FE30E94FD
:1004D0003D0520E030E04CE052E40E94D9040E9447
:1004E000A50560938C00089583E0809389008FEFC9
:1004F00080938800089583E080938B008FEF809332
:100500008A00089583E080938D008FEF80938C00A4
:100510000895E5E0F1E09081892B80830895E5E07E
:10052000F1E0908189238083089528988EBD0DB4D1
:1005300007FEFDCF86E69EE00197F1F7000080E51B
:100540008EBD0DB407FEFDCF8EB5289A08951F927B
:100550000F920FB60F920BB60F9211242F933F9369
:100560008F939F93AF93BF93EF93FF939091D60098
:1005700090934D02E0EDF0E080818823E9F38091D3
:100580001702882309F047C09A3071F4809119024C
:10059000E4E3F2E0E80FF11D90838F5F809319028E
:1005A00081E080931A0237C080911A02813049F5A8
:1005B0009D3089F520911902E4E3F2E0E20FF11D8C
:1005C0008DE08083322F3F5F3093190282E0809369
:1005D0001A0281E080931702109218023323D9F097
:1005E000EBE1F2E0A4E3B2E0CF010196820F911DAE
:1005F0002C9121931D92E817F907D1F73093180237
:100600000AC080911902E4E3F2E0E80FF11D908343
:100610008F5F80931902FF91EF91BF91AF919F91EE
:100620008F913F912F910F900BBE0F900FBE0F90A7
:100630001F90189580911502882309F06AC0809157
:100640001302882329F40E94B0018093D60061C070
:10065000813029F40E94B0018093D6005AC08230C4
:1006600029F40E94B0018093D60053C0833029F44E
:100670000E94B0018093D6004CC0843029F40E94BF
:10068000B0018093D60045C0853029F40E94B001A6
:100690008093D6003EC0863029F40E94B00180933A
:1006A000D60037C0873029F40E94B0018093D6006D
:1006B00030C0883029F40E94B0018093D60029C050
:1006C000893029F40E94B0018093D60022C08A307C
:1006D00029F40E94B0018093D6001BC08B3029F40E
:1006E0000E94B0018093D60014C08C3029F40E947F
:1006F000B0018093D6000DC08D3029F40E94B00166
:100700008093D60006C08E3021F40E94B001809301
:10071000D600809115028130C9F58091130288239B
:1007200029F40E9495028093D6000895813029F41F
:100730000E9495028093D6000895823029F40E9489
:1007400095028093D6000895833029F40E94950283
:100750008093D6000895843029F40E9495028093F6
:10076000D6000895853029F40E9495028093D60022
:100770000895863029F40E9495028093D60008954A
:10078000873021F40E9495028093D60008958091CD
:100790001502813059F480911302882319F40E94C4
:1007A000D80104C0813011F40E94DA018091150251
:1007B000823069F580911302882329F40E94D201C6
:1007C0000E94DC0124C0813029F40E94D2010E94E1
:1007D000DF011DC0823029F40E94D2010E94E50190
:1007E00016C0833029F40E94D2010E94E2010FC09A
:1007F000843029F40E94D2010E94E80108C08930A7
:1008000031F48091100260910E020E94CD0180911E
:1008100015028330A1F480911302882331F4809172
:100820001002909111020E941302809113028130F4
:1008300031F480911002909111020E941E02809169
:100840001502843051F580911302882321F48091A0
:1008500010020E94290280911302813021F48091BC
:1008600010020E94420280911302823021F4809192
:1008700010020E945B0280911302833011F40E94E7
:10088000740280911302843011F40E947B028091E3
:100890001302853011F40E94820280911502853086
:1008A00081F480911302882321F4809110020E9428
:1008B000890280911302813021F4809110020E94FC
:1008C0008F02089580911602813009F046C0809110
:1008D0001B028093150280911C0280931402809168
:1008E0001D028093130280911E0280931202982FA2
:1008F000907190935202982F9F709093540284FFAE
:1009000011C020911F022093550230912002309394
:100910005102932F80E0820F911D909311028093DA
:10092000100218C0913019F09230A1F407C08091E4
:100930001F0280931002109211020CC080911F02BE
:1009400080931002109211028091200280930E0277
:1009500010920F021092160202C0882361F4809157
:100960001402882331F40E941A0308950E94C703D9
:1009700008958130D9F3089580911702813061F490
:1009800010921902109218021092170210921A0275
:10099000809316020E94620408950E949D0180E0E7
:1009A0000E94420280E00E945B020E94BC04FDCFD4
:1009B0005058BB27AA270ED048C139D130F03ED1BC
:1009C00020F031F49F3F11F41EF42EC10EF4E09597
:1009D000E7FB24C1E92F4AD180F3BA1762077307F6
:1009E0008407950718F071F49EF562C10EF4E09546
:1009F0000B2EBA2FA02D0B01B90190010C01CA01D9
:100A0000A0011124FF27591B99F0593F50F4503E83
:100A100068F11A16F040A22F232F342F4427585F75
:100A2000F3CF469537952795A795F0405395C9F78D
:100A30007EF41F16BA0B620B730B840BBAF0915045
:100A4000A1F0FF0FBB1F661F771F881FC2F70EC0E4
:100A5000BA0F621F731F841F48F4879577956795B7
:100A6000B795F7959E3F08F0B3CF9395880F08F0A0
:100A70009927EE0F9795879508950CD0E6C0DED0A4
:100A800040F0D5D030F021F45F3F19F0C7C05111CC
:100A900010C1CAC0EBD098F39923C9F35523B1F321
:100AA000951B550BBB27AA2762177307840738F0DD
:100AB0009F5F5F4F220F331F441FAA1FA9F333D03C
:100AC0000E2E3AF0E0E830D091505040E695001CF0
:100AD000CAF729D0FE2F27D0660F771F881FBB1FAC
:100AE000261737074807AB07B0E809F0BB0B802D86
:100AF000BF01FF2793585F4F2AF09E3F510568F0D2
:100B00008DC0D7C05F3FECF3983EDCF386957795B8
:100B10006795B795F7959F5FC9F7880F911D9695D3
:100B2000879597F90895E1E0660F771F881FBB1F2F
:100B3000621773078407BA0720F0621B730B840BDC
:100B4000BA0BEE1F88F7E095089598D088F09F576C
:100B500090F0B92F9927B751A0F0D1F0660F771F09
:100B6000881F991F1AF0BA95C9F712C0B13081F0E9
:100B70009FD0B1E008959CC0672F782F8827B85F79
:100B800039F0B93FCCF3869577956795B395D9F74A
:100B90003EF490958095709561957F4F8F4F9F4F54
:100BA0000895E89409C097FB3EF490958095709560
:100BB00061957F4F8F4F9F4F9923A9F0F92F96E9A9
:100BC000BB279395F695879577956795B795F1111E
:100BD000F8CFFAF4BB0F11F460FF1BC06F5F7F4FBB
:100BE0008F4F9F4F16C0882311F096E911C07723CD
:100BF00021F09EE8872F762F05C0662371F096E8D6
:100C0000862F70E060E02AF09A95660F771F881FA4
:100C1000DAF7880F9695879597F9089597F99F6762
:100C200080E870E060E008959FEF80EC0895002474
:100C30000A941616170618060906089500240A9441
:100C400012161306140605060895092E0394000CC7
:100C500011F4882352F0BB0F40F4BF2B11F460FF56
:100C600004C06F5F7F4F8F4F9F4F089557FD90587F
:100C7000440F551F59F05F3F71F04795880F97FB60
:100C8000991F61F09F3F79F087950895121613061A
:100C90001406551FF2CF4695F1DF08C01616170649
:100CA0001806991FF1CF869571056105089408957E
:100CB000E894BB2766277727CB0197F90895F89426
:020CC000FFCF64
:020CC200200010
:00000001FF
